{"abi":[{"type":"function","name":"add","inputs":[{"name":"encryptedValue","type":"tuple","internalType":"struct Euint32","components":[{"name":"ctHash","type":"uint256","internalType":"uint256"},{"name":"securityZone","type":"uint8","internalType":"uint8"},{"name":"utype","type":"uint8","internalType":"uint8"},{"name":"signature","type":"bytes","internalType":"bytes"}]}],"outputs":[],"stateMutability":"nonpayable"},{"type":"function","name":"getCounter","inputs":[{"name":"sealingKey","type":"bytes32","internalType":"bytes32"}],"outputs":[{"name":"","type":"bytes","internalType":"bytes"}],"stateMutability":"view"},{"type":"error","name":"InvalidEncryptedInput","inputs":[{"name":"got","type":"uint8","internalType":"uint8"},{"name":"expected","type":"uint8","internalType":"uint8"}]},{"type":"error","name":"SecurityZoneOutOfBounds","inputs":[{"name":"value","type":"int32","internalType":"int32"}]}],"bytecode":{"object":"0x6080604052348015600e575f5ffd5b50610e2a8061001c5f395ff3fe608060405234801561000f575f5ffd5b5060043610610034575f3560e01c8063836e09011461003857806384ff25c614610068575b5f5ffd5b610052600480360381019061004d91906106d6565b610084565b60405161005f9190610771565b60405180910390f35b610082600480360381019061007d91906107b3565b610098565b005b60606100915f54836100c1565b9050919050565b5f6100ab826100a690610a28565b6100f2565b90506100b85f5482610165565b5f819055505050565b60605f83905080836040516020016100da929190610a58565b60405160208183030381529060405291505092915050565b5f5f600490508060ff16836040015160ff161461014c578260400151816040517f67cf3071000000000000000000000000000000000000000000000000000000008152600401610143929190610a8e565b60405180910390fd5b61015d610158846101ae565b6101f0565b915050919050565b5f61016f83610287565b61017f5761017c5f610298565b92505b61018882610287565b610198576101955f610298565b91505b6101a66004848460086102aa565b905092915050565b6101b6610667565b6040518060800160405280835f01518152602001836020015160ff168152602001600460ff16815260200183606001518152509050919050565b5f73020000000000000000000000000000000000008073ffffffffffffffffffffffffffffffffffffffff166327f9c76283336040518363ffffffff1660e01b8152600401610240929190610bba565b6020604051808303815f875af115801561025c573d5f5f3e3d5ffd5b505050506040513d601f19601f820116820180604052508101906102809190610bfc565b9050919050565b5f61029182610399565b9050919050565b5f6102a3825f6103a5565b9050919050565b5f73020000000000000000000000000000000000008073ffffffffffffffffffffffffffffffffffffffff16631888debd86846102e788886103bf565b5f67ffffffffffffffff811115610301576103006107fe565b5b60405190808252806020026020018201604052801561032f5781602001602082028036833780820191505090505b506040518563ffffffff1660e01b815260040161034f9493929190610d42565b6020604051808303815f875af115801561036b573d5f5f3e3d5ffd5b505050506040513d601f19601f8201168201806040525081019061038f9190610bfc565b9050949350505050565b5f5f8214159050919050565b5f5f6103b384600485610459565b90508091505092915050565b60605f600267ffffffffffffffff8111156103dd576103dc6107fe565b5b60405190808252806020026020018201604052801561040b5781602001602082028036833780820191505090505b50905083815f8151811061042257610421610d93565b5b602002602001018181525050828160018151811061044357610442610d93565b5b6020026020010181815250508091505092915050565b5f73020000000000000000000000000000000000008073ffffffffffffffffffffffffffffffffffffffff16631888debd84601a5f67ffffffffffffffff8111156104a7576104a66107fe565b5b6040519080825280602002602001820160405280156104d55781602001602082028036833780820191505090505b506104ec898960ff166104e78a610554565b6105ab565b6040518563ffffffff1660e01b815260040161050b9493929190610d42565b6020604051808303815f875af1158015610527573d5f5f3e3d5ffd5b505050506040513d601f19601f8201168201806040525081019061054b9190610bfc565b90509392505050565b5f5f8260030b121561059d57816040517f8f568bf80000000000000000000000000000000000000000000000000000000081526004016105949190610ddb565b60405180910390fd5b8163ffffffff169050919050565b60605f600367ffffffffffffffff8111156105c9576105c86107fe565b5b6040519080825280602002602001820160405280156105f75781602001602082028036833780820191505090505b50905084815f8151811061060e5761060d610d93565b5b602002602001018181525050838160018151811061062f5761062e610d93565b5b60200260200101818152505082816002815181106106505761064f610d93565b5b602002602001018181525050809150509392505050565b60405180608001604052805f81526020015f60ff1681526020015f60ff168152602001606081525090565b5f604051905090565b5f5ffd5b5f5ffd5b5f819050919050565b6106b5816106a3565b81146106bf575f5ffd5b50565b5f813590506106d0816106ac565b92915050565b5f602082840312156106eb576106ea61069b565b5b5f6106f8848285016106c2565b91505092915050565b5f81519050919050565b5f82825260208201905092915050565b8281835e5f83830152505050565b5f601f19601f8301169050919050565b5f61074382610701565b61074d818561070b565b935061075d81856020860161071b565b61076681610729565b840191505092915050565b5f6020820190508181035f8301526107898184610739565b905092915050565b5f5ffd5b5f608082840312156107aa576107a9610791565b5b81905092915050565b5f602082840312156107c8576107c761069b565b5b5f82013567ffffffffffffffff8111156107e5576107e461069f565b5b6107f184828501610795565b91505092915050565b5f5ffd5b7f4e487b71000000000000000000000000000000000000000000000000000000005f52604160045260245ffd5b61083482610729565b810181811067ffffffffffffffff82111715610853576108526107fe565b5b80604052505050565b5f610865610692565b9050610871828261082b565b919050565b5f5ffd5b5f819050919050565b61088c8161087a565b8114610896575f5ffd5b50565b5f813590506108a781610883565b92915050565b5f60ff82169050919050565b6108c2816108ad565b81146108cc575f5ffd5b50565b5f813590506108dd816108b9565b92915050565b5f5ffd5b5f5ffd5b5f67ffffffffffffffff821115610905576109046107fe565b5b61090e82610729565b9050602081019050919050565b828183375f83830152505050565b5f61093b610936846108eb565b61085c565b905082815260208101848484011115610957576109566108e7565b5b61096284828561091b565b509392505050565b5f82601f83011261097e5761097d6108e3565b5b813561098e848260208601610929565b91505092915050565b5f608082840312156109ac576109ab6107fa565b5b6109b6608061085c565b90505f6109c584828501610899565b5f8301525060206109d8848285016108cf565b60208301525060406109ec848285016108cf565b604083015250606082013567ffffffffffffffff811115610a1057610a0f610876565b5b610a1c8482850161096a565b60608301525092915050565b5f610a333683610997565b9050919050565b610a438161087a565b82525050565b610a52816106a3565b82525050565b5f604082019050610a6b5f830185610a3a565b610a786020830184610a49565b9392505050565b610a88816108ad565b82525050565b5f604082019050610aa15f830185610a7f565b610aae6020830184610a7f565b9392505050565b610abe8161087a565b82525050565b610acd816108ad565b82525050565b5f82825260208201905092915050565b5f610aed82610701565b610af78185610ad3565b9350610b0781856020860161071b565b610b1081610729565b840191505092915050565b5f608083015f830151610b305f860182610ab5565b506020830151610b436020860182610ac4565b506040830151610b566040860182610ac4565b5060608301518482036060860152610b6e8282610ae3565b9150508091505092915050565b5f73ffffffffffffffffffffffffffffffffffffffff82169050919050565b5f610ba482610b7b565b9050919050565b610bb481610b9a565b82525050565b5f6040820190508181035f830152610bd28185610b1b565b9050610be16020830184610bab565b9392505050565b5f81519050610bf681610883565b92915050565b5f60208284031215610c1157610c1061069b565b5b5f610c1e84828501610be8565b91505092915050565b7f4e487b71000000000000000000000000000000000000000000000000000000005f52602160045260245ffd5b60208110610c6557610c64610c27565b5b50565b5f819050610c7582610c54565b919050565b5f610c8482610c68565b9050919050565b610c9481610c7a565b82525050565b5f81519050919050565b5f82825260208201905092915050565b5f819050602082019050919050565b5f610cce8383610ab5565b60208301905092915050565b5f602082019050919050565b5f610cf082610c9a565b610cfa8185610ca4565b9350610d0583610cb4565b805f5b83811015610d35578151610d1c8882610cc3565b9750610d2783610cda565b925050600181019050610d08565b5085935050505092915050565b5f608082019050610d555f830187610a7f565b610d626020830186610c8b565b8181036040830152610d748185610ce6565b90508181036060830152610d888184610ce6565b905095945050505050565b7f4e487b71000000000000000000000000000000000000000000000000000000005f52603260045260245ffd5b5f8160030b9050919050565b610dd581610dc0565b82525050565b5f602082019050610dee5f830184610dcc565b9291505056fea2646970667358221220247e0766ee956f6623281778584d9b50167d22f06139e8eab68d08b397c326cb64736f6c634300081b0033","linkReferences":{}},"methodIdentifiers":{"add((uint256,uint8,uint8,bytes))":"84ff25c6","getCounter(bytes32)":"836e0901"},"id":0}