{"abi":[{"type":"constructor","inputs":[{"name":"q","type":"string","internalType":"string"},{"name":"optList","type":"string[]","internalType":"string[]"}],"stateMutability":"nonpayable"},{"type":"function","name":"getTally","inputs":[{"name":"sealingKey","type":"bytes32","internalType":"bytes32"}],"outputs":[{"name":"","type":"bytes[]","internalType":"bytes[]"}],"stateMutability":"view"},{"type":"function","name":"init","inputs":[],"outputs":[],"stateMutability":"nonpayable"},{"type":"function","name":"options","inputs":[{"name":"","type":"uint256","internalType":"uint256"}],"outputs":[{"name":"","type":"string","internalType":"string"}],"stateMutability":"view"},{"type":"function","name":"query","inputs":[],"outputs":[{"name":"","type":"string","internalType":"string"}],"stateMutability":"view"},{"type":"function","name":"vote","inputs":[{"name":"encOption","type":"tuple","internalType":"struct Euint8","components":[{"name":"ctHash","type":"uint256","internalType":"uint256"},{"name":"securityZone","type":"uint8","internalType":"uint8"},{"name":"utype","type":"uint8","internalType":"uint8"},{"name":"signature","type":"bytes","internalType":"bytes"}]}],"outputs":[],"stateMutability":"nonpayable"},{"type":"error","name":"InvalidEncryptedInput","inputs":[{"name":"got","type":"uint8","internalType":"uint8"},{"name":"expected","type":"uint8","internalType":"uint8"}]},{"type":"error","name":"SecurityZoneOutOfBounds","inputs":[{"name":"value","type":"int32","internalType":"int32"}]}],"bytecode":{"object":"0x608060405263ffffffff60035f6101000a81548163ffffffff021916908363ffffffff1602179055506005600360046101000a81548160ff021916908360ff16021790555034801561004f575f5ffd5b50604051611fe7380380611fe7833981810160405281019061007191906103f5565b600360049054906101000a900460ff1660ff16815111156100c7576040517f08c379a00000000000000000000000000000000000000000000000000000000081526004016100be906104c5565b60405180910390fd5b815f90816100d591906106f3565b5080600190805190602001906100ec9291906100f4565b5050506107c2565b828054828255905f5260205f2090810192821561013a579160200282015b8281111561013957825182908161012991906106f3565b5091602001919060010190610112565b5b509050610147919061014b565b5090565b5b8082111561016a575f8181610161919061016e565b5060010161014c565b5090565b50805461017a9061051a565b5f825580601f1061018b57506101a8565b601f0160209004905f5260205f20908101906101a791906101ab565b5b50565b5b808211156101c2575f815f9055506001016101ac565b5090565b5f604051905090565b5f5ffd5b5f5ffd5b5f5ffd5b5f5ffd5b5f601f19601f8301169050919050565b7f4e487b71000000000000000000000000000000000000000000000000000000005f52604160045260245ffd5b610225826101df565b810181811067ffffffffffffffff82111715610244576102436101ef565b5b80604052505050565b5f6102566101c6565b9050610262828261021c565b919050565b5f67ffffffffffffffff821115610281576102806101ef565b5b61028a826101df565b9050602081019050919050565b8281835e5f83830152505050565b5f6102b76102b284610267565b61024d565b9050828152602081018484840111156102d3576102d26101db565b5b6102de848285610297565b509392505050565b5f82601f8301126102fa576102f96101d7565b5b815161030a8482602086016102a5565b91505092915050565b5f67ffffffffffffffff82111561032d5761032c6101ef565b5b602082029050602081019050919050565b5f5ffd5b5f61035461034f84610313565b61024d565b905080838252602082019050602084028301858111156103775761037661033e565b5b835b818110156103be57805167ffffffffffffffff81111561039c5761039b6101d7565b5b8086016103a989826102e6565b85526020850194505050602081019050610379565b5050509392505050565b5f82601f8301126103dc576103db6101d7565b5b81516103ec848260208601610342565b91505092915050565b5f5f6040838503121561040b5761040a6101cf565b5b5f83015167ffffffffffffffff811115610428576104276101d3565b5b610434858286016102e6565b925050602083015167ffffffffffffffff811115610455576104546101d3565b5b610461858286016103c8565b9150509250929050565b5f82825260208201905092915050565b7f746f6f206d616e79206f7074696f6e73210000000000000000000000000000005f82015250565b5f6104af60118361046b565b91506104ba8261047b565b602082019050919050565b5f6020820190508181035f8301526104dc816104a3565b9050919050565b5f81519050919050565b7f4e487b71000000000000000000000000000000000000000000000000000000005f52602260045260245ffd5b5f600282049050600182168061053157607f821691505b602082108103610544576105436104ed565b5b50919050565b5f819050815f5260205f209050919050565b5f6020601f8301049050919050565b5f82821b905092915050565b5f600883026105a67fffffffffffffffffffffffffffffffffffffffffffffffffffffffffffffffff8261056b565b6105b0868361056b565b95508019841693508086168417925050509392505050565b5f819050919050565b5f819050919050565b5f6105f46105ef6105ea846105c8565b6105d1565b6105c8565b9050919050565b5f819050919050565b61060d836105da565b610621610619826105fb565b848454610577565b825550505050565b5f5f905090565b610638610629565b610643818484610604565b505050565b5b818110156106665761065b5f82610630565b600181019050610649565b5050565b601f8211156106ab5761067c8161054a565b6106858461055c565b81016020851015610694578190505b6106a86106a08561055c565b830182610648565b50505b505050565b5f82821c905092915050565b5f6106cb5f19846008026106b0565b1980831691505092915050565b5f6106e383836106bc565b9150826002028217905092915050565b6106fc826104e3565b67ffffffffffffffff811115610715576107146101ef565b5b61071f825461051a565b61072a82828561066a565b5f60209050601f83116001811461075b575f8415610749578287015190505b61075385826106d8565b8655506107ba565b601f1984166107698661054a565b5f5b828110156107905784890151825560018201915060208501945060208101905061076b565b868310156107ad57848901516107a9601f8916826106bc565b8355505b6001600288020188555050505b505050505050565b611818806107cf5f395ff3fe608060405234801561000f575f5ffd5b5060043610610055575f3560e01c806323da3991146100595780632c46b20514610089578063409e2205146100a7578063bc11cb3f146100d7578063e1c7392a146100f3575b5f5ffd5b610073600480360381019061006e9190610e9a565b6100fd565b6040516100809190610ff0565b60405180910390f35b6100916101c9565b60405161009e9190611062565b60405180910390f35b6100c160048036038101906100bc91906110b5565b610254565b6040516100ce9190611062565b60405180910390f35b6100f160048036038101906100ec9190611102565b6102fa565b005b6100fb6104dd565b005b60605f60028054905067ffffffffffffffff81111561011f5761011e611149565b5b60405190808252806020026020018201604052801561015257816020015b606081526020019060019003908161013d5790505b5090505f5f90505b6002805490508160ff1610156101bf5761018b60055f8360ff1660ff1681526020019081526020015f20548561055d565b828260ff16815181106101a1576101a0611176565b5b602002602001018190525080806101b7906111dc565b91505061015a565b5080915050919050565b5f80546101d590611231565b80601f016020809104026020016040519081016040528092919081815260200182805461020190611231565b801561024c5780601f106102235761010080835404028352916020019161024c565b820191905f5260205f20905b81548152906001019060200180831161022f57829003601f168201915b505050505081565b60018181548110610263575f80fd5b905f5260205f20015f91509050805461027b90611231565b80601f01602080910402602001604051908101604052809291908181526020018280546102a790611231565b80156102f25780601f106102c9576101008083540402835291602001916102f2565b820191905f5260205f20905b8154815290600101906020018083116102d557829003601f168201915b505050505081565b5f61030d8261030890611423565b61058e565b90505f60028054905011610356576040517f08c379a000000000000000000000000000000000000000000000000000000000815260040161034d9061147f565b60405180910390fd5b5f61037d8260025f8154811061036f5761036e611176565b5b905f5260205f200154610601565b90505f600190505b6002805490508110156103d0576103c1826103bc85600285815481106103ae576103ad611176565b5b905f5260205f200154610601565b61064a565b91508080600101915050610385565b5061041760045f3373ffffffffffffffffffffffffffffffffffffffff1673ffffffffffffffffffffffffffffffffffffffff1681526020019081526020015f2054610694565b156104835761048260045f3373ffffffffffffffffffffffffffffffffffffffff1673ffffffffffffffffffffffffffffffffffffffff1681526020019081526020015f205461047d60035f9054906101000a900463ffffffff1663ffffffff166106a5565b6106b7565b5b8160045f3373ffffffffffffffffffffffffffffffffffffffff1673ffffffffffffffffffffffffffffffffffffffff1681526020019081526020015f20819055506104d8826104d360016106a5565b6106b7565b505050565b5f5f90505b6001805490508160ff16101561055a576104fb5f6106a5565b60055f8360ff1660ff1681526020019081526020015f208190555060026105248260ff1661075f565b908060018154018082558091505060019003905f5260205f20015f90919091909150558080610552906111dc565b9150506104e2565b50565b60605f83905080836040516020016105769291906114bb565b60405160208183030381529060405291505092915050565b5f5f600290508060ff16836040015160ff16146105e8578260400151816040517f67cf30710000000000000000000000000000000000000000000000000000000081526004016105df9291906114f1565b60405180910390fd5b6105f96105f484610771565b6107b3565b915050919050565b5f61060b8361084a565b61061b576106185f61075f565b92505b6106248261084a565b610634576106315f61075f565b91505b61064260028484601861085b565b905092915050565b5f6106548361094a565b61066557610662600161095b565b92505b61066e8261094a565b61067f5761067c600161095b565b91505b61068c5f8484600b61085b565b905092915050565b5f61069e8261084a565b9050919050565b5f6106b0825f61096d565b9050919050565b5f5f90505b6002805490508160ff16101561075a575f6107086106f98560028560ff16815481106106eb576106ea611176565b5b905f5260205f200154610601565b846107035f6106a5565b610987565b905061072b60055f8460ff1660ff1681526020019081526020015f2054826109e9565b60055f8460ff1660ff1681526020019081526020015f2081905550508080610752906111dc565b9150506106bc565b505050565b5f61076a825f610a32565b9050919050565b610779610e2b565b6040518060800160405280835f01518152602001836020015160ff168152602001600260ff16815260200183606001518152509050919050565b5f73020000000000000000000000000000000000008073ffffffffffffffffffffffffffffffffffffffff166327f9c76283336040518363ffffffff1660e01b81526004016108039291906115d5565b6020604051808303815f875af115801561081f573d5f5f3e3d5ffd5b505050506040513d601f19601f820116820180604052508101906108439190611617565b9050919050565b5f61085482610a4c565b9050919050565b5f73020000000000000000000000000000000000008073ffffffffffffffffffffffffffffffffffffffff16631888debd86846108988888610a58565b5f67ffffffffffffffff8111156108b2576108b1611149565b5b6040519080825280602002602001820160405280156108e05781602001602082028036833780820191505090505b506040518563ffffffff1660e01b8152600401610900949392919061175d565b6020604051808303815f875af115801561091c573d5f5f3e3d5ffd5b505050506040513d601f19601f820116820180604052508101906109409190611617565b9050949350505050565b5f61095482610a4c565b9050919050565b5f610966825f610af2565b9050919050565b5f5f61097b84600485610b1b565b90508091505092915050565b5f6109918461094a565b6109a15761099e5f61095b565b93505b6109aa83610c16565b6109ba576109b75f6106a5565b92505b6109c382610c16565b6109d3576109d05f6106a5565b91505b6109e06004858585610c27565b90509392505050565b5f6109f383610c16565b610a0357610a005f6106a5565b92505b610a0c82610c16565b610a1c57610a195f6106a5565b91505b610a2a60048484600861085b565b905092915050565b5f5f610a4084600285610b1b565b90508091505092915050565b5f5f8214159050919050565b60605f600267ffffffffffffffff811115610a7657610a75611149565b5b604051908082528060200260200182016040528015610aa45781602001602082028036833780820191505090505b50905083815f81518110610abb57610aba611176565b5b6020026020010181815250508281600181518110610adc57610adb611176565b5b6020026020010181815250508091505092915050565b5f5f5f90508315610b0257600190505b5f610b0e825f86610b1b565b9050809250505092915050565b5f73020000000000000000000000000000000000008073ffffffffffffffffffffffffffffffffffffffff16631888debd84601a5f67ffffffffffffffff811115610b6957610b68611149565b5b604051908082528060200260200182016040528015610b975781602001602082028036833780820191505090505b50610bae898960ff16610ba98a610d18565b610d6f565b6040518563ffffffff1660e01b8152600401610bcd949392919061175d565b6020604051808303815f875af1158015610be9573d5f5f3e3d5ffd5b505050506040513d601f19601f82011682018060405250810190610c0d9190611617565b90509392505050565b5f610c2082610a4c565b9050919050565b5f73020000000000000000000000000000000000008073ffffffffffffffffffffffffffffffffffffffff16631888debd866004610c66888888610d6f565b5f67ffffffffffffffff811115610c8057610c7f611149565b5b604051908082528060200260200182016040528015610cae5781602001602082028036833780820191505090505b506040518563ffffffff1660e01b8152600401610cce949392919061175d565b6020604051808303815f875af1158015610cea573d5f5f3e3d5ffd5b505050506040513d601f19601f82011682018060405250810190610d0e9190611617565b9050949350505050565b5f5f8260030b1215610d6157816040517f8f568bf8000000000000000000000000000000000000000000000000000000008152600401610d5891906117c9565b60405180910390fd5b8163ffffffff169050919050565b60605f600367ffffffffffffffff811115610d8d57610d8c611149565b5b604051908082528060200260200182016040528015610dbb5781602001602082028036833780820191505090505b50905084815f81518110610dd257610dd1611176565b5b6020026020010181815250508381600181518110610df357610df2611176565b5b6020026020010181815250508281600281518110610e1457610e13611176565b5b602002602001018181525050809150509392505050565b60405180608001604052805f81526020015f60ff1681526020015f60ff168152602001606081525090565b5f604051905090565b5f5ffd5b5f5ffd5b5f819050919050565b610e7981610e67565b8114610e83575f5ffd5b50565b5f81359050610e9481610e70565b92915050565b5f60208284031215610eaf57610eae610e5f565b5b5f610ebc84828501610e86565b91505092915050565b5f81519050919050565b5f82825260208201905092915050565b5f819050602082019050919050565b5f81519050919050565b5f82825260208201905092915050565b8281835e5f83830152505050565b5f601f19601f8301169050919050565b5f610f3082610eee565b610f3a8185610ef8565b9350610f4a818560208601610f08565b610f5381610f16565b840191505092915050565b5f610f698383610f26565b905092915050565b5f602082019050919050565b5f610f8782610ec5565b610f918185610ecf565b935083602082028501610fa385610edf565b805f5b85811015610fde5784840389528151610fbf8582610f5e565b9450610fca83610f71565b925060208a01995050600181019050610fa6565b50829750879550505050505092915050565b5f6020820190508181035f8301526110088184610f7d565b905092915050565b5f81519050919050565b5f82825260208201905092915050565b5f61103482611010565b61103e818561101a565b935061104e818560208601610f08565b61105781610f16565b840191505092915050565b5f6020820190508181035f83015261107a818461102a565b905092915050565b5f819050919050565b61109481611082565b811461109e575f5ffd5b50565b5f813590506110af8161108b565b92915050565b5f602082840312156110ca576110c9610e5f565b5b5f6110d7848285016110a1565b91505092915050565b5f5ffd5b5f608082840312156110f9576110f86110e0565b5b81905092915050565b5f6020828403121561111757611116610e5f565b5b5f82013567ffffffffffffffff81111561113457611133610e63565b5b611140848285016110e4565b91505092915050565b7f4e487b71000000000000000000000000000000000000000000000000000000005f52604160045260245ffd5b7f4e487b71000000000000000000000000000000000000000000000000000000005f52603260045260245ffd5b7f4e487b71000000000000000000000000000000000000000000000000000000005f52601160045260245ffd5b5f60ff82169050919050565b5f6111e6826111d0565b915060ff82036111f9576111f86111a3565b5b600182019050919050565b7f4e487b71000000000000000000000000000000000000000000000000000000005f52602260045260245ffd5b5f600282049050600182168061124857607f821691505b60208210810361125b5761125a611204565b5b50919050565b5f5ffd5b61126e82610f16565b810181811067ffffffffffffffff8211171561128d5761128c611149565b5b80604052505050565b5f61129f610e56565b90506112ab8282611265565b919050565b5f5ffd5b6112bd816111d0565b81146112c7575f5ffd5b50565b5f813590506112d8816112b4565b92915050565b5f5ffd5b5f5ffd5b5f67ffffffffffffffff821115611300576112ff611149565b5b61130982610f16565b9050602081019050919050565b828183375f83830152505050565b5f611336611331846112e6565b611296565b905082815260208101848484011115611352576113516112e2565b5b61135d848285611316565b509392505050565b5f82601f830112611379576113786112de565b5b8135611389848260208601611324565b91505092915050565b5f608082840312156113a7576113a6611261565b5b6113b16080611296565b90505f6113c0848285016110a1565b5f8301525060206113d3848285016112ca565b60208301525060406113e7848285016112ca565b604083015250606082013567ffffffffffffffff81111561140b5761140a6112b0565b5b61141784828501611365565b60608301525092915050565b5f61142e3683611392565b9050919050565b7f6e6f7420696e697469616c697a656400000000000000000000000000000000005f82015250565b5f611469600f8361101a565b915061147482611435565b602082019050919050565b5f6020820190508181035f8301526114968161145d565b9050919050565b6114a681611082565b82525050565b6114b581610e67565b82525050565b5f6040820190506114ce5f83018561149d565b6114db60208301846114ac565b9392505050565b6114eb816111d0565b82525050565b5f6040820190506115045f8301856114e2565b61151160208301846114e2565b9392505050565b61152181611082565b82525050565b611530816111d0565b82525050565b5f608083015f83015161154b5f860182611518565b50602083015161155e6020860182611527565b5060408301516115716040860182611527565b50606083015184820360608601526115898282610f26565b9150508091505092915050565b5f73ffffffffffffffffffffffffffffffffffffffff82169050919050565b5f6115bf82611596565b9050919050565b6115cf816115b5565b82525050565b5f6040820190508181035f8301526115ed8185611536565b90506115fc60208301846115c6565b9392505050565b5f815190506116118161108b565b92915050565b5f6020828403121561162c5761162b610e5f565b5b5f61163984828501611603565b91505092915050565b7f4e487b71000000000000000000000000000000000000000000000000000000005f52602160045260245ffd5b602081106116805761167f611642565b5b50565b5f8190506116908261166f565b919050565b5f61169f82611683565b9050919050565b6116af81611695565b82525050565b5f81519050919050565b5f82825260208201905092915050565b5f819050602082019050919050565b5f6116e98383611518565b60208301905092915050565b5f602082019050919050565b5f61170b826116b5565b61171581856116bf565b9350611720836116cf565b805f5b8381101561175057815161173788826116de565b9750611742836116f5565b925050600181019050611723565b5085935050505092915050565b5f6080820190506117705f8301876114e2565b61177d60208301866116a6565b818103604083015261178f8185611701565b905081810360608301526117a38184611701565b905095945050505050565b5f8160030b9050919050565b6117c3816117ae565b82525050565b5f6020820190506117dc5f8301846117ba565b9291505056fea26469706673582212201dbd09aebeeb07430f2e3a44af52d879ac89d369faadbd2424a96f50a9c3f93564736f6c634300081b0033","linkReferences":{}},"methodIdentifiers":{"getTally(bytes32)":"23da3991","init()":"e1c7392a","options(uint256)":"409e2205","query()":"2c46b205","vote((uint256,uint8,uint8,bytes))":"bc11cb3f"},"id":1}